:020000040800F2
:1000000040060020AD010008DF1D0008791100083E
:10001000511D0008990C0008A745000800000000C9
:10002000000000000000000000000000E93F0008A0
:10003000DD0D000800000000A52800083D41000873
:10004000CD010008CD010008CD0100081D320008D7
:10005000CD010008CD010008CD010008CD01000848
:10006000CD010008CD010008CD010008CD01000838
:10007000CD010008CD010008CD010008CD01000828
:10008000CD010008CD010008CD01000800000000EE
:10009000000000000000000000000000550E0008F5
:1000A000CD010008CD010008CD010008CD010008F8
:1000B000A5410008CD010008CD010008CD010008D0
:1000C000CD010008CD010008CD010008CD010008D8
:1000D000CD010008FD420008CD010008000000002D
:1000E000E10D0008BD2B0008CD0100080000000054
:1000F000000000000000000000000000CD0100082A
:1001000000000000CD010008E1410008CD01000819
:1001100000000000000000000000000000000000DF
:10012000CD010008CD010008CD010008CD01000877
:10013000CD010008000000000000000000000000E9
:10014000000000000000000000000000CD010008D9
:10015000CD010008CD010008CD010008CD01000847
:10016000CD010008CD0100080000000000000000E3
:10017000000000000000000000000000000000007F
:1001800000000000CD010008000000000000000099
:10019000CD010008CD010008DFF80CD000F050FBC5
:1001A00000480047C568000840060020084801686C
:1001B00041F47001016007480047FEE7FEE7FEE7F3
:1001C000FEE7FEE7FEE7FEE7FEE7FEE7FEE70000EC
:1001D00088ED00E0990100082DE9F0410024061B9C
:1001E000254671F1000605DA01240027D0EB07004F
:1001F00067EB0101161E73F1000605DA0027D2EB4A
:100200000702012567EB030300F003FA86460E465A
:1002100017469C46AC4204D00025D0EB050E65EB9A
:10022000010624B10020D2EB000760EB030C7046FE
:1002300031463A466346BDE8F081D2B201E000F8AB
:10024000012B491EFBD270470022F6E710B513467A
:100250000A4604461946FFF7F0FF204610BD30B5A8
:1002600004460020034600E05B1C934203D2E05C9E
:10027000CD5C401BF8D030BD2DE9FE4F804681EAB1
:100280000300C00F0C46009021F0004123F0004510
:10029000B8EB0200A94105D24046214690461C46D3
:1002A0000B46024623F00040104347D0270DC7F30A
:1002B0000A00C3F30A510290401A019040286BDAF9
:1002C000C3F3130040F4801B0098924620B1002332
:1002D000D2EB030A63EB0B0B01985946C0F14002C5
:1002E000504600F0C7F906460D4650465946019A59
:1002F00000F0CFF910EB08006141002487EA1152A9
:1003000084EAE7731A4340D0009A62B3019A012A43
:100310004FEA075215DC001B61EB02014FF000426F
:1003200002EA0752CDE90042001C41F58011324635
:100330002B4600F006FA03B0BDE8F08F4046214698
:10034000F9E7001B61EB0201001C41F58013001866
:100350005B412018A2F5001747EB030140EAD57076
:10036000B6196D4111E06D084FEA360645EAC075D1
:100370004FEA0752001B61EB0201001C41F580119E
:1003800049084FEA30000019514132462B4603B06C
:10039000BDE8F04F00F0C6B90098012240000023EC
:1003A000D0EB020263EBE073009821464FEAE07461
:1003B000B8EB000061EB0401E9E783F000435BE781
:1003C00081F0004158E72DE9FE4F81EA030404F073
:1003D000004421F0004100944FF0000B23F0004353
:1003E00050EA01045ED052EA03045BD0C3F30A541E
:1003F000C1F30A552C44A4F2F3340194A0FB025437
:10040000C1F3130141F48011C3F3130343F48013C8
:1004100001FB024400FB034E840A970A44EA81541C
:1004200047EA8357A4FB076802958D0A05FB0785F9
:100430004FEA932C04FB0C542705029D4FEA065803
:1004400047EA1637B5EB08056EEB070C870E920EE0
:1004500047EA811742EA8312A7FB0201B6EB0B01C0
:1004600064EB00042B0D43EA0C335E1844EB1C5084
:10047000DA465146E7FB0201C5F313044FEA0B339A
:1004800043EA14534FEA0432019C43EA0603A4F101
:100490000C040294009CCDE900B400F052F903B0C2
:1004A000BDE8F08F00200146F9E72DE9F04D81EA23
:1004B000030404F0004B21F0004514464FF0000AFD
:1004C00023F0004150EA050220D054EA01021DD079
:1004D000C5F30A570246C5F31303C1F31300C1F372
:1004E0000A5640F4801543F48013A7EB0608101B4E
:1004F000D64608F2FD3873EB050002D308F1010877
:1005000001E092185B41B8F1000F03DA00200146C8
:10051000BDE8F08D00204FF48011064684460EE0C1
:10052000171B73EB050705D3121B63EB050306438B
:100530004CEA010C49084FEA300092185B4150EA3E
:100540000107EDD152EA030012D082EA040083EAE7
:100550000501084305D0101BAB4106D20122002340
:1005600006E000224FF0004302E06FF0010253105A
:100570001AEB06004CEB085110EB0A0041EB0B01A3
:10058000BDE8F04D00F0CEB800F0004230F0004081
:100590000AD0C10D01F56071C0F3160042EA0151A5
:1005A000C20840071143704700200146704701F020
:1005B000004330B421F0004150EA010206D00A0D98
:1005C000A2F56072C1F31301002A02DC30BC0020E6
:1005D0007047440F44EAC104C100E01830BC00EB8E
:1005E000C25000F068B830B50B460146002020220A
:1005F000012409E021FA02F59D4205D303FA02F530
:10060000491B04FA02F52844151EA2F10102F1DC8F
:1006100030BD2DE9F05F0546002092469B46884696
:100620000646814640241BE028464146474622466E
:1006300000F018F953465A46C01A914110D311469A
:100640001846224600F016F82D1A67EB01084F46AF
:1006500022460120002100F00DF817EB00094E4161
:10066000201EA4F10104DFDC484631462A464346F9
:10067000BDE8F09F202A04DB203A00FA02F10020B6
:1006800070479140C2F1200320FA03F319439040D0
:100690007047202A06DBCB17203A41FA02F043EAE2
:1006A000E07306E041FA02F3D040C2F1200291402B
:1006B0000843194670470029A8BF7047401C4900ED
:1006C00008BF20F00100704710B4B0FA80FC00FAB7
:1006D0000CF050EA010404BF10BC704749B1CCF1E2
:1006E000200421FA04F411FA0CF118BF012121436E
:1006F0000843A3EB0C01CB1D4FEA00614FEA102029
:1007000042BF002010BC704700EBC35010440029CA
:10071000A4BF10BC7047401C490008BF20F0010076
:1007200010BC704710B5141E73F1000408DA401CA9
:1007300041F1000192185B411A4301D120F0010000
:1007400010BD2DE9F04D92469B4611B1B1FA81F2F0
:1007500002E0B0FA80F220329046FFF78BFF0446A9
:100760000F4640EA0A0041EA0B0153465A46084345
:1007700013D0114653EA010019D0C8F14002504687
:1007800000F070F805460E46504659464246FFF7BF
:1007900071FF084305D0012004E020463946BDE83A
:1007A000F08D0020054346EAE0762C4337430A9853
:1007B0006305E40AA0EB08000022FD0A44EA47545E
:1007C0000A3002D500200146E9E701051019694108
:1007D000DDE9084500196941BDE8F04DA2E7C1F324
:1007E0000A52C1F3130140F2FF3341F480119A42DF
:1007F00002DA00200146704740F233439A42A2F2E7
:10080000334202DC524200F02DB8FFF733BF000044
:1008100030B5041E71F1000404DB4FF00044404287
:1008200064EB0101141E73F1000405DB1C464FF05C
:100830000043524263EB0403994208BF904230BD2B
:10084000064C074D06E0E06840F0010394E807001D
:1008500098471034AC42F6D3FFF7A2FCE4C7050872
:1008600004C80508202A04DB203A21FA02F00021FE
:10087000704721FA02F3D040C2F1200291400843B0
:100880001946704721B1826842F00102826003E09C
:10089000826822F001028260704700000021084A4D
:1008A0001168084A1140D0E900231A4383681A43AB
:1008B000C3681A431143044AC2F804137047000086
:1008C00004230140E030FCFF0020014021B1826898
:1008D00042F48072826003E0826822F48072826057
:1008E000704721B1826842F40072826003E082683E
:1008F00022F400728260704730B502460020002367
:100900005068104C20400D790C6844EA05242043BF
:10091000506090680C4C2040D1E903542C438D6802
:100920002C434D7944EA450420439060D06A20F47A
:1009300070000C7D641EE4B2234340EA0350D06291
:1009400030BD0000FFFEFFFCFDF7FFC0F0B5044620
:100950000D4600200021092D11DDE068A5F10A06F1
:1009600006EB4607072606FA07F18843A5F10A06B3
:1009700006EB460603FA06F10843E0600CE0206946
:1009800005EB4507072606FA07F1884305EB450600
:1009900003FA06F108432061072A0FDA606B561E3E
:1009A00006EB86071F2606FA07F18843561E06EB5C
:1009B000860605FA06F10843606322E00D2A0FDA85
:1009C000206BD61F06EB86071F2606FA07F1884321
:1009D000D61F06EB860605FA06F10843206310E0F1
:1009E000E06AA2F10D0606EB86071F2606FA07F15C
:1009F0008843A2F10D0606EB860605FA06F10843C8
:100A0000E062F0BD816841F0804181607047000084
:100A10001CB50121022001F08BFF012000908DF810
:100A2000040000208DF8070001208DF8050000204B
:100A30008DF806006946044800F0B0FA012102482A
:100A400000F022FB1CBD000000040240F0B52DEDBB
:100A5000028B8BB006460C4617465648008866F354
:100A60000E30544908800846008864F34B20088003
:100A70000846008867F304100880062C28D2DFE8B7
:100A800004F003090F151B219FED4B0A4B4880ED25
:100A9000000A1DE09FED4A0A484880ED000A17E071
:100AA0009FED480A454880ED000A11E09FED460A97
:100AB000424880ED000A0BE09FED440A3F4880ED7C
:100AC000000A05E09FED420A3C4880ED000A00BFA5
:100AD00000BF00253CE001213E4800F0D3FA012090
:100AE00004F010FB40213C4800F0C3FA10B13B4831
:100AF0000078E0B92F49088802F0E2FD3849088003
:100B00002E48D0ED000A0846008800EE100AB8EE24
:100B1000400A20EE800ADFED330A80EE201A3248C8
:100B200080ED001A0020088001202C490870012166
:100B3000284800F0A9FA2C4890ED000A01A800EB23
:100B4000850080ED000A0F2004F0DCFA681CC5B2B5
:100B5000052DC0DB9DED020ADDED030A30EE200A13
:100B6000DDED040A30EE200ADDED050A30EE200A44
:100B7000F1EE000A80EE208A042E06D0052E08D061
:100B8000062E0AD0072E10D10BE0184880ED008AFF
:100B90000BE0164880ED018A07E0144880ED028AD8
:100BA00003E0124880ED038A00BF00BF0BB0BDEC2C
:100BB000028BF0BDAE00002000803B43A800002067
:100BC0000000FA4200007A420000FA4100007A4137
:100BD0000000FA400004024000000240AC00002087
:100BE000A000002000247449A4000020000100207F
:100BF00070B5049C184D2D8860F3CF35164E3580A6
:100C000035462D8861F30825358035462D8862F3F9
:100C10004715358035462D8863F3C3053580354645
:100C20002D8864F34205358035462D8825F0010571
:100C30006D1C35800025094E35809FED090A094D50
:100C400085ED000A9FED060A074D85ED000A002597
:100C5000064E357070BD0000AE000020A0000020E0
:100C600000000000A4000020A8000020AC0000202C
:100C700010B500240BE00748006808B9012000E027
:100C8000002004490860022004F03CFA641CC82CCF
:100C9000F1DB10BD8402404200BFFEE700200149A5
:100CA00008707047C4000020002001490870704798
:100CB000C50000207FB505460C460121084601F01D
:100CC00047FE0295ADF804400020ADF80C00ADF8E9
:100CD000060001A94FF0804003F0CEFA0122114630
:100CE000900703F0BDFA1C208DF8000000208DF85D
:100CF000010003208DF8020001208DF803006846F2
:100D000001F06EF80121880703F08DFA7FBD000025
:100D10007FB505460C460121082001F019FE029519
:100D2000ADF804400020ADF80C00ADF8060001A9B4
:100D30000D4803F0A1FA012211460B4803F090FA86
:100D400032208DF8000000208DF8010003208DF87E
:100D5000020001208DF80300684601F041F80121EE
:100D6000014803F060FA7FBD000C004021B1026829
:100D700042F00102026003E0026822F00102026018
:100D80007047000010B500220268134B1A40CC686F
:100D90000B6823434C6923438C692343CC69234369
:100DA0000C6A23434C6A23438C6A23434C6B2343D2
:100DB0008C6B23431A430260426922F00702D1E997
:100DC0000B3423431A4342610B6943604B688360D1
:100DD0008B68C36010BD00003F801CF070470000AE
:100DE00010B54FF4004000F049F860B14FF40041F5
:100DF000174800F03EF930B905F08CFB4FF4004085
:100E000000F036F822E04FF4006000F037F830B11F
:100E100005F094FC4FF4006000F02AF816E04FF45F
:100E2000805000F02BF830B105F0CAFC4FF4805030
:100E300000F01EF80AE04FF4004000F01FF828B15F
:100E400005F0FEFC4FF4004000F012F810BD000069
:100E50000004024010B54FF4807000F00FF828B184
:100E600005F09AFB4FF4807000F002F810BD00000E
:100E70000149086070470000143C01400146002011
:100E8000034A12680A400AB1012000E000207047BE
:100E9000143C0140002123498279002A3AD00A46B5
:100EA000126803689A430B461A600A1D12680368A9
:100EB0009A430B1D1A60027911440A6803681A43A9
:100EC0000A60184A0832126803689A43154B0833BF
:100ED0001A601A1D126803689A43124B0C331A6089
:100EE0004279102A0ED11A1F126803681A430D4B5B
:100EF00008331A601A1D126803681A43094B0C3331
:100F00001A600DE00749427911440A6803681A43E0
:100F10000A6005E0027911440A6803689A430A608E
:100F200070470000003C01401CB50121032001F086
:100F3000FFFC0220009001208DF8040000208DF8B5
:100F4000060003208DF8050002208DF80700694691
:100F50000F4800F023F84FF40050009001208DF866
:100F6000070069460B4800F019F84FF44C700090E8
:100F700000208DF804006946064800F00FF80221B1
:100F8000034800F07FF80120034908601CBD000001
:100F90000000024000040240B4824042F0B50A461C
:100FA00000210023002400BF3DE0012505FA01F3E4
:100FB000156805EA03049C4234D105684F000326F6
:100FC000BE40B543056015794E00B540066835430F
:100FD00005601579012D02D01579022D16D185688D
:100FE0004F000326BE40B543856055794E00B5409D
:100FF000866835438560456801268E40B543456067
:10100000456896798E40B6B235434560C5684F0055
:101010000326BE40B543C560D5794E00B540C668CD
:101020003543C560491C1029BFD3F0BDF0B500237E
:1010300000244D07ED0E02FA05F3CE1000F1200555
:1010400055F826504E07F70E0F26BE40B543CF1079
:1010500000F1200646F82750CE1000F1200555F883
:10106000265045EA0304CE1000F1200545F826403D
:10107000F0BD0246002013690B400BB1012000E0D7
:101080000020704741837047018370470AB1018394
:1010900000E041837047000001480078704700007D
:1010A000C40000200148007870470000C5000020FF
:1010B000F0B5059CB2F9005042F6E066B54210DD8D
:1010C0000025294E3580294D2E882D886D1C2DB286
:1010D000264F3D80052E04D100253E463580012552
:1010E0001D70B1F9005042F6E066B54210DD0025F2
:1010F0001E4E35801C4D2E882D886D1C2DB21A4F2A
:101100003D80052E04D100253E46358002251D7008
:101110001D78022D26D1B1F900504FF47A7695FB57
:10112000F6F5134EB6F900604FF47A7796FBF7F6B2
:10113000B54214DCB1F9005042F21076B5420EDA35
:101140000C4D2E882D886D1C2DB20A4F3D80062E29
:1011500008D10125257000253E46358002E0002596
:10116000044E3580F0BD00003A0000203800002019
:10117000420000203E00002000BFFEE710B5002026
:101180000F4908600F48006820F440400D4908608E
:101190000846006840F48040086000200A49C1F811
:1011A0009C02022003F0CAFF0120054908600220CA
:1011B00003F0C4FF00200449C1F8980210BD0000EC
:1011C0009882404200040240008040421CB5012148
:1011D000022001F0ADFBC020009001208DF804003A
:1011E00000208DF8060003208DF8050001208DF801
:1011F000070069460448FFF7D1FE01200349086053
:101200000349C1F89C021CBD000402409882404280
:101210000080404210B500200F4908600F48006868
:1012200020F440400D4908600846006840F48040C2
:10123000086001200A49C1F89C02022003F07EFFE9
:10124000012005490860022003F078FF00200449CE
:10125000C1F8980210BD000098824042000402408C
:101260000080404270B5054600241648006820F40E
:10127000404014490860084600680860002616E0EF
:10128000002011490860022003F058FF01200F4997
:10129000C1F898026006040E0B487C38006808B15B
:1012A000601CC4B2012003F049FF701CC6B2082EB6
:1012B000E6DB15B9FFF7AEFF01E0FFF75FFF204661
:1012C00070BD00000004024098824042008040420D
:1012D00070B504461548006820F440401349086082
:1012E0000846006840F4804008600020104908600B
:1012F000002517E0E0090E49091D08606006040E8C
:10130000022003F01BFF01200A49C1F898020220C5
:1013100003F014FF002006490860022003F00EFFCE
:10132000681CC5B2082DE5DB70BD0000000402405A
:10133000988240420080404210B50F48006820F477
:1013400040400D4908600846006840F4804008604D
:1013500001200A4908600A49C1F89802042003F0F4
:10136000EDFE002005490860042003F0E7FE0020A0
:101370000349C1F8980210BD000402409C8240421B
:101380000080404210B50F48006820F440400D49ED
:1013900008600846006840F48040086000200A4960
:1013A00008600A49C1F89C02042003F0C7FE01202E
:1013B000054908600549C1F89C02042003F0BEFEFF
:1013C00010BD00000004024098824042008040426C
:1013D00010B500241348006820F44040114908600B
:1013E00008460068086001200F49086003F0A6FE67
:1013F00001200E49C1F8980203F0A0FE07E0601C2E
:10140000C4B2FA2C03DDFFF7BDFF012010BD064872
:10141000803800680028F2D10349091F086000BF26
:10142000F4E70000000402409C82404200804042F9
:1014300010B502F085FE4FF4A06000F00DFD6820AD
:1014400003F042FE4FF4E13006F00CFB00F031F8FF
:10145000FFF76AFD04F0E4FB02F04CFB00F048FBF0
:1014600000F078FC0021042001F0A0FE05E007A0B8
:1014700003F09CF8C82003F045FE05F08DFA002823
:10148000F5D108A003F092F810BD00004D5055367C
:1014900030353020496E6974204572726F72210DAB
:1014A0000A000000496E6974204F4B0D0A000000CD
:1014B000704710B5632140F2E730FFF7FBFB632173
:1014C00040F2E730FFF724FC10BD000030B50446C1
:1014D000187801287BD1B4F900003E4DA84271DA9A
:1014E000B1F9000040F6B835A8426BDAB2F9000055
:1014F000394DA84266DD3948B0F900000A2802DB00
:101500000220374D28803648B0F9000020B101286C
:101510002AD0022855D153E0B4F90000314DB5F975
:101520000050A84206DA2D480088401C00B22B4D1E
:10153000288018E0B4F900502A48B0F9000000F5FE
:10154000FA70854206DA25480088401C00B2234D17
:10155000288008E00120224D288020480088401C77
:1015600000B21E4D28802CE0B4F900001D4DB5F9E5
:101570000050A84206DD19480088401C00B2174DF3
:1015800028800EE0B4F900501648B0F90000A0F52C
:10159000FA70854205DD11480088401C00B20F4DED
:1015A00028800E48B0F90000042808DB00200B4D0D
:1015B00028800B4D2880012030BD08E002E000E0CB
:1015C00000BF04E00020054D2880054D2880002044
:1015D000F2E7000008D5FFFF78ECFFFF3C00002099
:1015E000440000204000002038B50024002000F016
:1015F0007DF90446002C74D0012C06D0022C5FD05B
:10160000032C6FD0042C5AD1DFE0A74800780528BE
:101610000CD10120A54908700020A3490870A449F5
:1016200008704FF6FF7002F039FA48E09E480078E3
:10163000042837D19F48007808B9012000E0002035
:101640009C4908700846007868B100209A490860F3
:101650004FF496719948FEF7F7FD94480178984841
:1016600002F0A6FE2BE0012093490860954800781F
:1016700058B101218D480078401E934A1154002032
:101680008B4908708F49087019E00021874800785D
:10169000401E8D4A11540020854908700120894957
:1016A00008700CE080480078072806D1012087499F
:1016B000087000207E49087001E0FFF7D9FAEEE0DB
:1016C0007948007805280ED102207849087000205A
:1016D00075490870764908704FF6FF7002F0DEF920
:1016E00018E0E0E017E070480078042805D16F4862
:1016F0000178774802F05CFE0CE06B480078072820
:1017000006D101207349087000206949087001E082
:10171000FFF7AEFAC3E06448007805280CD1032037
:1017200062490870002060490870614908704FF6EE
:10173000FF7002F0B3F947E05B48007802281FD140
:101740004FF6FF7064490090C988634B33F811105D
:1017500024318AB21946C98833F8110094236E21C6
:1017600002F06AF95C48C08808B9022002E05A48D1
:10177000C088401E5849C88000204D49087023E0A9
:101780004948007803281DD14FF6FF705349009057
:101790008988524B33F8111064318AB2194689880E
:1017A00033F811009623322102F046F94B48808825
:1017B00008B9012000E000204849888000203C4909
:1017C000087001E0FFF754FA69E03748007805280F
:1017D0000CD1042035490870002033490870344981
:1017E00008704FF6FF7002F059F957E02E48007864
:1017F00002282ED13848C08802280BD138480078FA
:101800003B2801D1002002E035480078401C3449D3
:1018100008701AE03048C08801280BD131480078A0
:101820003B2801D1002002E02E480078401C2D49C1
:1018300008700AE02C480078172801D1002002E047
:1018400029480078401C2849087000201849087071
:1018500024E01548007803281ED1204880880128FC
:101860000BD1204800783B2801D1002002E01D4820
:101870000078401C1B4908700AE01B4800781728B4
:1018800001D1002002E018480078401C1649087079
:1018900000200749087001E0FFF7EAF900BF00BF28
:1018A00000200349087038BD3600002007000020E2
:1018B0000200002006000020B482404210010020F7
:1018C000D5000020D40000202400002009000020C2
:1018D000D90000200A00002028000020300000204D
:1018E00005000020040000200300002010B504467D
:1018F00014B10120234908702248007858B32248C7
:10190000006858B120480C38006838B11E481038BB
:10191000006818B11C48001D0068E0B90A2003F0F7
:10192000F1FB0020174908701748006808B901202A
:1019300010BD15480C38006808B90220F8E71248B5
:101940001038006808B90320F2E70F48001D00684E
:10195000B0B90420ECE70C480068012810D10A480F
:101960000C38006801280BD107481038006801289E
:1019700006D10548001D0068012801D10149087001
:101980000020D5E74C0000202082404208B52F4AB5
:101990002F49304800F084F82F48304B2B4A2C490F
:1019A00000902C48FFF784FB2C4B284A28492948F3
:1019B000FFF78CFD2A4908702448B0F9003024480C
:1019C000B0F900202348B0F9001026A002F0EEFD87
:1019D00022490978012901D128A100E029A108465E
:1019E00002F0E4FD1E48007801280FD1FFF740F90E
:1019F0002748007808B9012000E000202449087039
:101A00000120244908700020154908701248007808
:101A100001280FD1FFF72CF91D48007808B90120E3
:101A200000E000201A49087001201A4908700020BF
:101A3000094908700748B0F90000174908800448B0
:101A4000B0F900001549088008BD00001000002012
:101A50000E0000200C000020120000200B000020CF
:101A6000130000206163656C3A252D313064252D0B
:101A7000313064252D313064090000005055545533
:101A8000500A00004C4159444F574E0A00000000D4
:101A90000000002001000020400000204200002043
:101AA0002DE9FC4104460D4616466B4606223B21B5
:101AB000682000F077F80746BFB99DF801009DF84F
:101AC000001040EA012000B220809DF803009DF83C
:101AD000021040EA012000B228809DF805009DF820
:101AE000041040EA012000B230803846BDE8FC8195
:101AF00010B5FFF76BFB80216B2000F0D7F8642056
:101B000003F000FB00216B2000F0D0F8032000F070
:101B10008BF8002000F080F8322000F0AAF80021B5
:101B2000382000F0C3F800216A2000F0BFF800213F
:101B3000232000F0BBF88021372000F0B7F8752093
:101B400000F013F80446682C0BD101216B2000F043
:101B5000ADF800216C2000F0A9F8322000F089F8DF
:101B600001E0012010BD0020FCE770B50446FFF73E
:101B7000E3FBD020FFF7ACFBFFF72AFC2046FFF782
:101B8000A7FBFFF725FCFFF7D7FBD120FFF7A0FB52
:101B9000FFF71EFC0020FFF765FB0546FFF7F2FB91
:101BA000284670BD2DE9F04106460F4614461D46F5
:101BB000FFF7C2FB002141EA4601C8B2FFF788FBEC
:101BC000FFF706FC20B1FFF7DDFB0120BDE8F08147
:101BD0003846FFF77DFBFFF7FBFBFFF7ADFB01216D
:101BE00001EB4601C8B2FFF773FBFFF7F1FB0DE015
:101BF000012C04D10020FFF735FB287003E0012001
:101C0000FFF730FB2870601EC4B26D1C002CEFD1B2
:101C1000FFF7B8FB0020D9E710B50446E006010E37
:101C20001C2000F043F810BD10B50446E006010E7C
:101C30001B2000F03BF810BD70B504460025BC2CFD
:101C400001DB012510E0622C01DB02250CE02A2CCF
:101C500001DB032508E0142C01DB042504E00A2C39
:101C600001DB052500E0062529461A2000F01EF8B4
:101C700070BD70B50446B4F57A7F01DD4FF47A7417
:101C8000042C00DA04244FF47A7090FBF4F0401E28
:101C9000C5B22946192000F009F80546264604EB8E
:101CA000D671C1F34F00FFF7C7FF70BD70B5054691
:101CB0000C46FFF741FBD020FFF70AFBFFF788FB3C
:101CC00018B1FFF75FFB012070BD2846FFF700FB4E
:101CD000FFF77EFB2046FFF7FBFAFFF779FB18B111
:101CE000FFF750FB0120EFE7FFF74CFB0020EBE78D
:101CF0002DE9F04105460E4617469846FFF71CFBB6
:101D0000002141EA4501C8B2FFF7E2FAFFF760FBA4
:101D100020B1FFF737FB0120BDE8F0813046FFF727
:101D2000D7FAFFF755FB00240CE018F80400FFF782
:101D3000CFFAFFF74DFB18B1FFF724FB0120EBE7CB
:101D4000601CC4B2BC42F0DBFFF71CFB0020E3E7E1
:101D500000BFFEE73EB541F6FF740121080700F021
:101D6000F7FD012000F082F8002001F045F845F26F
:101D70005001884231D0012000F0ACFE04E0601C2C
:101D800084B20A2003F0BEF9412000F083FE00284F
:101D9000F5D00CB901203EBD4FF4807000F0B6FEC6
:101DA000012000F0ADFE7F200190FF200290002076
:101DB0000090684600F0EEFF00230A220E21172053
:101DC00001F0E0F9032310220921142001F0C6F9E3
:101DD00045F25001002001F0D7FA0020DBE7704700
:101DE00070B5002100230F22C4781CB3174C24685F
:101DF00004F4E064C4F5E064C4F30721C1F1040411
:101E0000E3B20A4144789C40E1B284781440214313
:101E10000C07210E0E4C05786155047804F01F055F
:101E20000124AC4005786D11AD0005F1E025C5F841
:101E3000004109E0047804F01F050124AC40054D81
:101E40000678761145F8264070BD00000CED00E0E4
:101E500000E400E080E100E002490143024A116031
:101E6000704700000000FA050CED00E0014908622F
:101E70007047000000000E420EB54448B4232222F1
:101E800037210090012001F015FD4148B4232222A2
:101E900037210090232001F00DFD3E48B42322227B
:101EA00037210090452001F005FD3B48B423222254
:101EB00037210090672001F0FDFC3848B42322222E
:101EC00037210090892001F0F5FC3548B423222207
:101ED00037210090AB2001F0EDFC3248B4232222E0
:101EE00037210090CD2001F0E5FC1F20F0232222B5
:101EF0000A210090104601F013FD1F20F023442218
:101F00000A210090104601F00BFD1F20F0236622ED
:101F10000A210090104601F003FD1F20F0238822C3
:101F20000A210090104601F0FBFC1F20F023AA229A
:101F30000A210090104601F0F3FC1F20F023CC2270
:101F40000A210090104601F0EBFC4CF218611922B6
:101F50001548164B1B7830F813001D3080B2CDE9C0
:101F6000012100901049114B1B7831F813101031EA
:101F70008AB20D490D4B1B7831F81310C91C88B279
:101F80003223192101F0F4FB0EBD00003CFF0308D1
:101F90000C2F0408DC5E0408AC8E04087CBE040828
:101FA0004CEE04081C1E050816000020140000203A
:101FB00010B58AB000200990142104A8FEF744F956
:101FC0004FF6FF700021CDE9011065484068009090
:101FD000634864A20A210368142001F0C3FF644827
:101FE00028231A4600210090B42001F063FC6148C8
:101FF00028231A461E210090C82001F05BFC5D4892
:1020000028231A4696210090C82001F053FC5A4814
:1020100000780A2190FBF1F080B24FF4166148433A
:10202000564901EB40043C23282246210A20009413
:1020300001F040FC504800780A2190FBF1F201FBCE
:10204000120080B24FF4166148434C4901EB400442
:102050003C23282246211846009401F02BFC4848D6
:102060003C23282246210090642001F023FC4548AF
:1020700000780A2190FBF1F080B24FF416614843DA
:102080003E4901EB40043C23282246218C20009449
:1020900001F010FC3B4800780A2190FBF1F201FBB3
:1020A000120080B24FF416614843344901EB4004FA
:1020B0003C2328224621B420009401F0FBFB324847
:1020C00000780A2190FBF1F03030C4B24FF6FF7077
:1020D0000021CDE901102D48406800902B48224690
:1020E00084210368642001F085FE274800780A21D6
:1020F00090FBF1F201FB12003030C4B24FF6FF70DA
:102100000021CDE901102148406800901F48224677
:1021100084210368782001F06DFE1D4828231A46AB
:10212000C8210090142001F0C5FB09A803F0C8F9EC
:102130000446224617A104A802F048FA4FF6FF70A1
:102140000021CDE90110064840680090044804AA27
:10215000C82103683C2001F005FF0AB010BD000053
:1021600058000020323032302E392E780000000026
:10217000BCD903083CE60308030000207C0B0308DD
:10218000FCC60308040000200500002060000020B9
:10219000BCF2030853746570733A2535640000007F
:1021A00000B589B0002001F0B3F8142104A8FEF7AF
:1021B0004BF84FF6FF700021CDE901102B48406825
:1021C00000902A482AA20A210368322001F0CAFEA0
:1021D0002A4828231A4696210090C82001F06AFB5D
:1021E0004FF6FF700021CDE90110204840680090B3
:1021F0001E4823A246210368382001F0B3FE23487D
:1022000000780090224803782248027822A104A88E
:1022100002F0DCF94FF6FF700021CDE90110134800
:1022200040680090114804AA78210368382001F022
:1022300099FE4FF478401B490090C988194B33F838
:10224000111024318AB21946C98833F81100942339
:102250006E2101F0F1FB144828231A46C821009092
:10226000142001F027FB09B000BD00006000002031
:1022700054494D455F534554000000003CE60308B7
:10228000323032302E392E3135000000050000206A
:1022900004000020030000202532643A2532643A0D
:1022A0002532640028000020BCF203083EB500205F
:1022B00001F02EF84FF6FF700021CDE901104248E1
:1022C00040680090404841A20A210368322001F092
:1022D00049FE414828231A4696210090C82001F063
:1022E000E9FA3E4800780A2190FBF1F080B24FF401
:1022F000166148433A4901EB40043C232822462119
:102300000A20009401F0D6FA344800780A2190FBA4
:10231000F1F201FB120080B24FF4166148433049DC
:1023200001EB40043C23282246211846009401F08A
:10233000C1FA2C483C23282246210090642001F059
:10234000B9FA294800780A2190FBF1F080B24FF4E5
:1023500016614843224901EB40043C2328224621D0
:102360009120009401F0A6FA1F4800780A2190FB02
:10237000F1F201FB120080B24FF416614843184994
:1023800001EB40043C2328224621AF20009401F0B9
:1023900091FA4FF47840154900908988134B33F82F
:1023A000111064318AB21946898833F811009623D6
:1023B000322101F041FB0E4828231A46C821009023
:1023C000142001F077FA3EBD600000202B20434C22
:1023D0004F434B202B0000003CE603080300002085
:1023E0007C0B0308FCC6030804000020300000201A
:1023F000BCF203080EB574482823B42214210090BF
:102400001E2001F057FA71488C2364224621009067
:10241000872001F04FFA4FF6FF704FF47841CDE975
:1024200001106B484068009069486AA25021036817
:10243000142001F097FD6948007888B94FF6FF70C5
:1024400018231A4651210090672001F055F9002009
:102450006A23802250210090662001F0EDFA10E0FE
:1024600000206A23802250210090662001F0E4FAC7
:102470004FF4FC6018231A4651210090672001F0A8
:102480003BF94FF6FF704FF47841CDE90110504809
:10249000406800904E4852A274210368142001F055
:1024A00061FD4E48407888B94FF6FF7018231A46F0
:1024B00075210090672001F01FF900208E238022F3
:1024C00074210090662001F0B7FA10E000208E23FE
:1024D000802274210090662001F0AEFA4FF4FC6077
:1024E00018231A4675210090672001F005F94FF670
:1024F000FF704FF47841CDE90110354840680090F5
:10250000334839A298210368142001F02BFD334889
:10251000807888B94FF6FF7018231A4699210090E9
:10252000672001F0E9F80020B22380229821009072
:10253000662001F081FA10E00020B2238022982169
:102540000090662001F078FA4FF4FC6018231A46D8
:1025500099210090672001F0CFF84FF6FF704FF4FB
:102560007841CDE901101A4840680090184820A22F
:10257000BC210368142001F0F5FC1848C07888B924
:102580004FF6FF7018231A46BD210090672001F016
:10259000B3F80020D6238022BC210090662001F0F1
:1025A0004BFA10E00020D6238022BC210090662048
:1025B00001F042FA4FF4FC6018231A46BD21009046
:1025C000672001F099F80EBDDCA300081CDC0008B0
:1025D00060000020412D2D2D3E0000002400002031
:1025E000422D2D2D3E000000432D2D2D3E000000DC
:1025F000442D2D2D3E00000010B52DED028B8AB02C
:102600008C482823502205210090104601F052F9F1
:1026100089483C231A46282100900A2001F04AF9F3
:1026200086483C231A46692100900A2001F042F9AD
:1026300083483C231A46AA2100900A2001F03AF967
:1026400072B6012000F088FF05F07CFA10EE104A07
:1026500062B60A2002F056FD002000F07DFF204601
:10266000FDF792FF41EC180B53EC182B75A105A850
:1026700001F0ACFF4FF6FF704FF47841CDE9011047
:10268000734840680090724805AA462103685020AC
:1026900001F068FC6FA271A105A801F097FF4FF649
:1026A000FF701F21CDE9011069484068009068481B
:1026B00005AA87210368502001F054FC65A269A196
:1026C00005A801F083FF4FF6FF704FF4FC61CDE9E0
:1026D00001105F48406800905D4805AAC821036862
:1026E000502001F03FFC6148007800285BD00020BA
:1026F0005E490870012000F02FFF5D4890ED000A50
:10270000B5EEC00AF1EE10FA01D1012000E0002080
:1027100000EE100AB8EEC00A554880ED000A00200D
:1027200000F01AFF4BA24DA105A801F04FFF4FF694
:10273000FF7001900290464840680090444805AA06
:1027400087210368502001F00DFC494890ED001AE4
:10275000B5EEC01AF1EE10FA02D09FED461B01E073
:102760009FED461BB0EE410AF0EE610A53EC102BD0
:1027700044A105A801F02AFF4FF6FF701F21CDE903
:102780000110334840680090314805AA872103684A
:10279000502001F0E7FB40F6B83002F0B3FC4FF6F2
:1027A000FF7001F07BF93A48007800283BD0002008
:1027B00037490870012000F0CFFE03A805F074F837
:1027C000002000F0C9FE23A226A105A801F0FEFE0C
:1027D0004FF6FF70019002901D48406800901C4821
:1027E00005AAC8210368502001F0BCFB29A105A857
:1027F000039A01F0EBFE4FF6FF704FF4FC61CDE958
:102800000110134840680090114805AAC8210368C8
:10281000502001F0A7FB40F6B83002F073FC4FF6F1
:10282000FF7001F03BF900201D4908700AB0BDECB3
:10283000028B10BDEC4D0508EC6605080C830508FD
:102840002C9F0508563A252E3466205600000000BD
:10285000580000204E6F6E6500000000433A25735B
:1028600000000000523A257300000000090000201B
:10287000480000200000000000000000FF21FDF6DD
:1028800075AE6B40433A252E346720754600000034
:102890000A000020523A2564204F686D00000000B5
:1028A000020000207047000010B5FEF7F5FB00287D
:1028B0002CD01748007808B901F0C2F91548007803
:1028C000012805D1FEF7D4F90020124908700DE067
:1028D00010480078022809D1002402E0FEF7C8F968
:1028E000641C052CFADB00200A4908700A480078AD
:1028F000052804D1FEF778FE002007490870064835
:102900000078401C04490870FEF7C8F910BD0000AB
:1029100002000020080000204600002010B5FEF74D
:10292000C1FB18B1FFF732F8FEF7BEF910BD000089
:1029300029B1064A12680243044B1A6004E0034AB4
:1029400012688243014B1A60704700003038024021
:1029500029B1064A12680243044B1A6004E0034A94
:1029600012688243014B1A607047000040380240F1
:1029700029B1064A12680243044B1A6004E0034A74
:1029800012688243014B1A607047000044380240CD
:1029900029B1064A12680243044B1A6004E0034A54
:1029A00012688243014B1A607047000024380240CD
:1029B000F0B5002100220024022500260223324F18
:1029C0003F6807F00C0121B1042905D0082937D14F
:1029D00005E02E4F076036E02C4F076033E02A4FAA
:1029E0003F1F3F68C7F38056274F3F1F3F6807F0E0
:1029F0003F036EB1254FB7FBF3F7DFF88CC0ACF1A6
:102A0000040CDCF800C0CCF3881C07FB0CF40CE0D1
:102A10001E4FB7FBF3F7DFF870C0ACF1040CDCF825
:102A200000C0CCF3881C07FB0CF4174F3F1F3F6816
:102A3000C7F301477F1C7D00B4FBF5F7076002E098
:102A4000124F076000BF00BF0F4F3F6807F0F00153
:102A500009090F4F7A5C0768D74047600A4F3F6803
:102A600007F4E051890A0A4F7A5C4768D7408760CB
:102A7000054F3F6807F46041490B054F7A5C476892
:102A8000D740C760F0BD000008380240001BB70007
:102A9000E000002010B501460022002300204A116A
:102AA000012A02D10A4C236808E0022A03D1084C0B
:102AB0007034236802E0064C7434236801F01F026E
:102AC000012494401C400CB1012000E0002010BD06
:102AD000003802400021094A11701170012802D00B
:102AE000042808D103E00121044A117004E0052103
:102AF000024A117000E000BF00BF7047703802400A
:102B000001490860704700003C0E4742002100F474
:102B10004072B2F5407F08D1094A116821F4F811DA
:102B2000084A02401143064A1160054A6832126899
:102B3000C0F30B031A43024B68331A60704700005E
:102B400008380240FFFCFF0F38B50246002400940D
:102B500000230020CA24184D2C6053242C6041B15E
:102B6000154C1C3C24681443134D1C3D2C60012063
:102B70001EE0114C1C3C246894430F4D1C3D2C60FE
:102B800000BF0D4C183C246804EA1223009C641C0E
:102B90000094009CB4F5803F01D0002BF1D0064C8E
:102BA000183C246804EA12240CB9002000E001203B
:102BB000FF24014D2C6038BD2428004010B54FF48F
:102BC000807000F079F8012805D1000200F024F8A7
:102BD0000220034908704FF40030FEF749F910BD98
:102BE00008000020014600BF080900EB80004200F9
:102BF00001F00F001044C0B270470146002204E00B
:102C0000501CC2B2A1F10A00C1B20A29F8DA1007B9
:102C100041EA10607047000081B241F08001044A2F
:102C2000126802F0800262EA0101014A11607047F5
:102C30000C280040002101098AB242F08002044BB6
:102C40001B6803F0800363EA0202014B1A607047BD
:102C50000C28004008B50022009200200021104AF4
:102C6000126802F04002CAB9421E0D4B1A6000BF42
:102C70000B4A126802F04001009A521C0092009A1E
:102C8000B2F5803F01D00029F2D0054A126802F067
:102C900040020AB1012002E0002000E0012008BD4E
:102CA0000C2800400348006820F0800001490860BB
:102CB000704700000C28004010B50146002000229B
:102CC000054B1B68054C03EA040202EA01030BB141
:102CD000012000E0002010BD0C2800407F3F0100D3
:102CE00070B506460C4600250F4800680F4900EAFB
:102CF0000105C5F305402070C5F30620607005F09E
:102D00007F00A07005F48000000CE0705EB92078B0
:102D1000FFF768FF20706078FFF764FF6070A078AD
:102D2000FFF760FFA07070BD002800407F7F7F002C
:102D3000CA22174B1A6053221A6091B1144A1C3AE6
:102D4000126820F004031A43114B1C3B1A60104A0E
:102D50001C32126800F004031A430D4B1C331A6036
:102D600011E00B4A1C3A126820F004039A43084B06
:102D70001C3B1A60064A1C32126800F004039A4396
:102D8000034B1C331A60FF22014B1A60704700008E
:102D90002428004030B504460025CA2015490860A3
:102DA00053200860FFF756FF00B91DE011481C389A
:102DB000006820F040000F491C3908600846006890
:102DC000216808430B491C3908600A491439A06876
:102DD000086008460068A18840EA014005491439A6
:102DE0000860FFF75FFF0125FF20024908602846C1
:102DF00030BD00002428004008B5014600200090A6
:102E000004480090009800EB810000900098006852
:102E100008BD0000502800402DE9F04105460E464F
:102E20001446002765B93648006800F0400000B13C
:102E300002E00020E07000BFA06800B919E018E0CF
:102E40002F48006800F0400020B12078FFF7CAFE4C
:102E5000074602E00020E07000BFA06820B9207B98
:102E6000FFF7C0FE074604E0207BFFF7BBFE0746E6
:102E700000BF95B120780004617840EA0120A17874
:102E80000843E17840EA0140217B40EA0160A16803
:102E90000843616840EA01071BE02078FFF7ADFEB8
:102EA0004FEA00486078FFF7A8FE48EA0028A078BB
:102EB000FFF7A3FE48EA0008E07848EA0048207BD4
:102EC000FFF79BFE48EA0060A1680843616840EA9A
:102ED0000107CA200A491C31086053200860B6F572
:102EE000807F03D106481430076002E004481830A0
:102EF0000760FF2002491C310860BDE8F081000036
:102F0000082800402DE9F04105460C460026002720
:102F10004DB9607800F01000102804D1607820F0DE
:102F200010000A30607005B908E06078FFF75AFEBB
:102F30000646A078FFF756FE064600BF55B1E0787A
:102F40000004617840EA0120A1780843217840EA32
:102F5000413611E0E078FFF750FE4FEA0048607814
:102F6000FFF74BFE48EA0028A078FFF746FE48EA44
:102F70000008207848EA4036CA20124908605320E9
:102F80000860FFF767FE08B9002714E00E483040DC
:102F90000C4920390860FFF785FE0A481C38006894
:102FA00000F0200030B900F06BF908B9002702E00A
:102FB000012700E00127FF20024908603846BDE8EC
:102FC000F0810000242800403FFFFF002DE9F04180
:102FD00005460C46002600274DB92E48006800F033
:102FE000400000B102E00020E07000BF0DE0294881
:102FF000006800F0400020B12078FFF7F3FD06469E
:1030000002E00020E07000BF00BF55B1207800044E
:10301000617840EA0120A1780843E17840EA01465E
:1030200011E02078FFF7E9FD4FEA00486078FFF7EC
:10303000E4FD48EA0028A078FFF7DFFD48EA000831
:10304000E07848EA0046CA2012491C310860532043
:103050000860FFF7FFFD08B9002713E00E48304075
:103060000C4908390860FFF71DFE0A48006800F0A7
:10307000200030B900F004F908B9002702E0012768
:1030800000E00127FF2003491C3108603846BDE8F5
:10309000F0810000082800407F7F7F00CA21054A98
:1030A000116053211160034910390860FF2111603C
:1030B0007047000024280040F0B587B004460D4654
:1030C00016461F4600214FF48070FFF73DFD8DF836
:1030D00000508DF801608DF8027000208DF803001B
:1030E0008DF810404FF0804003900020029000982F
:1030F000019001AA4FF480710020FFF78DFE4FF47C
:103100008050FFF797FD4FF40030FDF7B1FE01212D
:103110000803FFF70DFE01210802FFF715FD4FF42C
:103120000030059000208DF8180008208DF8190057
:1031300001208DF81A0005A8FDF7ACFE29200649EC
:1031400008700220487088700120C8700846FEF799
:1031500047FE07B0F0BD0000BF0000202DE9F041A0
:1031600004460D4616461F46054886704570077092
:10317000C47001460020FFF7C5FEBDE8F0810000E5
:10318000BB0000202DE9F04104460D4616461F46BF
:103190000548047045708670C77001460020FFF72F
:1031A00015FFBDE8F0810000B70000207CB50546A2
:1031B0000C46002000F0ACF8284600F091F82046BC
:1031C000FFF76CFF4FF48040FFF734FD4FF48000B1
:1031D000FDF74EFE01218803FFF7AAFD012000F054
:1031E00097F84FF48000009000208DF8040008202C
:1031F0008DF8050001208DF806006846FDF74AFEAF
:103200000320054908700220487088700120C870AA
:103210000846FEF7E5FD7CBDBF00002010B54FF469
:103220008060FFF749FD012819D18002FFF7F4FC07
:103230000D490020FFF754FD0B4800780B4908703A
:10324000094840780A490870074880780949087099
:1032500009480078012802D10020084908704FF47D
:103260008000FDF705FE10BDB70000200300002020
:10327000040000200500002036000020020000208D
:1032800008B50022009200200021CA22134B1A60C8
:1032900053221A60114A183A126822F0A0020F4B0A
:1032A000183B1A6000BF0D4A183A126802F020015C
:1032B000009A521C0092009AB2F5003F01D00029FA
:1032C000F1D0064A183A126802F020020AB1012031
:1032D00000E00020FF22014B1A6008BD24280040B6
:1032E000CA210A4A11605321116008491C39096832
:1032F00021F00701054A1C3A116011460968014393
:103300001160FF21014A116070470000242800402D
:1033100018B501460023009300220020CA23194C4F
:1033200023605323236049B1164B1C3B1B6843F4B5
:103330008063144C1C3C236001201FE0114B1C3B9C
:103340001B6823F480630F4C1C3C236000BF0D4BB3
:10335000183B1B6803F00402009B5B1C0093009B5E
:10336000B3F5803F01D0002AF1D0064B183B1B6813
:1033700003F004030BB9002000E00120FF23014CFF
:10338000236018BD2428004008B500220092044A9A
:103390000092009A02EB80020092009A116008BD30
:1033A0005028004000B587B001210846FFF7C0FA59
:1033B00001210803FFF7DCFA1C20059001208DF89D
:1033C000180000208DF81A0003208DF81900002045
:1033D0008DF81B0005A94548FDF7E0FD444800684D
:1033E00020F03010424908600846006840F0101094
:1033F0000860081D006820F00400091D08600846E8
:10340000006840F480600860081D006840F4406077
:10341000091D08600846006840F00C000860081D9F
:10342000006820F03010091D08600220059001207E
:103430008DF81B0005A92D48FDF7B0FD01221C21C8
:103440002A48FDF723FEE020059002208DF81800A1
:1034500000208DF81A0003208DF8190001208DF846
:103460001B0005A92148FDF799FD052211461F48BB
:10347000FDF7DCFD052206211C48FDF7D7FD0522DE
:1034800007211A48FDF7D2FD01210803FFF780FA52
:1034900000214FF48050FFF77BFA0020ADF80000C8
:1034A0004FF48270ADF802000020ADF80400022055
:1034B000ADF806000120ADF808004002ADF80A00A2
:1034C0003820ADF80C000020ADF80E000720ADF854
:1034D00010006946074800F0ABF80121054800F0EC
:1034E0008DF8FF2000F008F807B000BD0000024092
:1034F000000402400030014010B5044600BF022124
:103500000A4800F087F80028F9D02146074800F063
:103510008DF800BF0121054800F07CF80028F9D0A3
:10352000024800F080F8C0B210BD00000030014039
:1035300010B50446074800884FF6C7710840054992
:10354000088008460088204308800121014800F0D7
:1035500055F810BD0030014010B586B0044600207B
:10356000ADF804004FF48270ADF806000020ADF80D
:1035700008004FF40070ADF80E000020ADF8120006
:103580000A20ADF8140024B1012C0FD0022C28D150
:103590001AE00820ADF810000020ADF80C00ADF8DE
:1035A0000A0001A9144800F043F81BE02820ADF8F8
:1035B00010000120ADF80C000020ADF80A0001A9B0
:1035C0000D4800F035F80DE02820ADF8100000207F
:1035D000ADF80C00ADF80A0001A9074800F028F882
:1035E00000E000BF00BF0121034800F007F8FF2002
:1035F000FFF782FF06B010BD0030014021B1028804
:1036000042F04002028004E002884FF6BF731A4085
:10361000028070470246002013890B400BB1012045
:1036200000E000207047014688897047818170471B
:1036300010B50022028802F441520B884C882343C3
:103640008C882343CC8823430C8923434C89234310
:103650008C892343CC8923431A430280838B4FF206
:10366000FF74234083830B8A038210BD70B5054627
:10367000002405E0601CC4B2C82C01DD002070BD30
:1036800002210E48FFF7C6FF0028F3D029460B4859
:10369000FFF7CCFF002405E0601CC4B2C82C01DD9C
:1036A0000020ECE701210548FFF7B4FF0028F3D024
:1036B0000248FFF7B8FFC0B2E1E700000030014068
:1036C0007CB5044620128DF80400E0B28DF80500A8
:1036D0009DF80400FFF7CAFF8DF800009DF8050073
:1036E000FFF7C4FF8DF801009DF801009DF8001060
:1036F00040EA012528467CBD2DE9F84305460C46E5
:1037000017469846DDF82090002204211748FDF75F
:10371000BDFCF02D01DAF02C01DBBDE8F883E819DF
:10372000F02802DBC5F1F00087B204EB0800F028B6
:1037300003DBC4F1F0001FFA80F800260CE0A019AA
:1037400083B2E81982B2A01981B22846CDF8009060
:1037500000F0E6F8701CC6B24645F0DD01220421F7
:103760000248FDF793FC00BFD7E7000000000240CD
:103770002DE9F04F8BB005460E4691469A46002241
:1037800004214B48FDF782FC0027B846BB460020C9
:103790000A900990089007900690002405900490E4
:1037A00003900290A9EB0500002802DDA9EB0500BB
:1037B00001E0A5EB090007B2AAEB0600002802DD34
:1037C000AAEB060001E0A6EB0A000FFA80F80FFA58
:1037D00085FB30B20A90A94503DB012009900890CF
:1037E00003E04FF0FF3009900890B24503DB012061
:1037F0000790069003E04FF0FF3007900690474592
:103800000DDB0020099006903C46384607EBD0714E
:10381000491009B20591CDF8108003970CE0002003
:10382000089007904446404608EBD071491009B211
:1038300005910497CDF80C80002002902BE016989B
:1038400000900A9A91B21FFA8BF0DDE9142300F080
:1038500067F8DDE90410084400B205900598A0421D
:103860000CDB0598001B00B20590099858440FFA2C
:1038700080FB07990A98084400B20A9008985844B7
:103880000FFA80FB06990A98084400B20A90029841
:10389000401C00B20290DDE902018842CFDD012226
:1038A00004210348FDF7F2FB0BB0BDE8F08F0000E8
:1038B000000002402DE9F04104460D4616461F4621
:1038C000DDF81880F02C01DAF02D01DBBDE8F08185
:1038D000A019401EF02800DBF8E7E819401EF02888
:1038E00000DBF3E7002204210C48FDF7CFFBE819C9
:1038F000401E83B2A019401E82B22946204600F025
:1039000007FA700000FB07F1404600F0E7FA0122D9
:1039100004210248FDF7BAFB00BFD7E700000240D0
:103920002DE9FC5F05460C4617461E46301B002855
:1039300001DD301B00E0A01B791B002901DD791B94
:1039400000E0E91B884201DD012000E00020019039
:10395000019828B1A84625464446B846374646460B
:10396000BD4205DDA8463D464746A046344646468C
:10397000781B0FFA80F9301B002801DD301B00E0B6
:10398000A01B00B20090484609EBD07149100FFA15
:1039900081FAB44202DA4FF0010B01E04FF0FF3B35
:1039A0001DE0019828B1294620460C9A00F01CF829
:1039B00004E0214628460C9A00F016F80098AAEB7D
:1039C00000000FFA80FABAF1000F06DA04EB0B00E0
:1039D00084B20AEB09000FFA80FA681C85B2BD4276
:1039E000DFDDBDE8FC9F0000F8B506460C46154635
:1039F000F02E01DAF02C00DBF8BD234632462146DA
:103A0000304600F085F928128DF80000E8B28DF8F4
:103A10000100002204210748FDF738FB0221684617
:103A200000F05CFA012204210248FDF72FFB00BFE1
:103A3000E2E70000000002402DE9F84305460E468B
:103A400017469846089C002204211348FDF71EFBE8
:103A500033463A46314628460094FFF761FF434615
:103A60002A46314628460094FFF75AFF43463A4615
:103A7000414628460094FFF753FF43463A463146F5
:103A800038460094FFF74CFF012204210248FDF75D
:103A9000FDFABDE8F883000000000240F8B50446D6
:103AA000EF231A460021084600F032F900220421D3
:103AB0000F48FDF7EBFA002511E000260BE020127D
:103AC0008DF80000E0B28DF801000221684600F098
:103AD00005FA701C86B2F02EF1DB681C85B2F02D61
:103AE000EBDB012204210248FDF7D0FAF8BD00000B
:103AF000000002401FB5FFF755FC0820FFF718FD36
:103B0000192001F0FFFA002210214248FDF7BEFA09
:103B1000192001F0F7FA012210213E48FDF7B6FA0C
:103B2000322001F0EFFA3A2000F0C0F9552000F001
:103B300001FAB22000F0BAF937A103C9CDE90201B8
:103B4000052102A800F0CAF9002000F033F9B720DF
:103B500000F0ACF9352000F0EDF9BB2000F0A6F93B
:103B6000192000F0E7F9C02000F0A0F92C2000F0A7
:103B7000E1F9C22000F09AF9012000F0DBF9C3203E
:103B800000F094F9122000F0D5F9C42000F08EF96D
:103B9000202000F0CFF9C62000F088F90F2000F0B7
:103BA000C9F9D02000F082F9A42000F0C3F9A120C7
:103BB00000F0C0F9E02000F079F919A090E80E00BB
:103BC000C0688DE80E0003900E21684600F086F96B
:103BD000E12000F06BF916A3D3E901021968DB6854
:103BE00001AC0DC400910E21684600F077F9212048
:103BF00000F05CF9112000F059F9132000F056F99B
:103C0000292000F053F9322001F07CFA0020FFF760
:103C100045FF1FBD000002400C0C003333000000C4
:103C2000D0040D11132B3F544C180D0B1F23000013
:103C3000D0040C11132C3F44512F1F1F20230000D0
:103C400008B530480078082856D2DFE800F0040DA7
:103C5000161F283155400020FFF77EFCFEF70CF9B7
:103C60000120294908704BE00020FFF775FCFEF7A2
:103C70009FF901202449087042E00020FFF76CFC06
:103C8000FEF78EFA01202049087039E00020FFF786
:103C900063FCFEF70BFB01201B49087030E000209D
:103CA000FFF75AFCFEF7A6FB01201749087027E032
:103CB0000020FFF751FC1548F0231A460021009020
:103CC0000846FFF7F7FD01200F49087018E00120B2
:103CD000FFF742FC01F05CF9FCF79AFE0120034675
:103CE0000422002100900846FCF782FF0020FFF725
:103CF00033FCFEF781FC03E001200349087000BF9C
:103D000000BF08BD36000020020000207C490108E9
:103D10002DE9F84F04460E4615461F4600220421A1
:103D20002348FDF7B3F91FFA84F81FFA85F906F165
:103D300050001FFA80FA07F150001FFA80FB2A207A
:103D400000F0B4F84FEA28208DF8000008F0FF00DA
:103D50008DF801004FEA29208DF8020009F0FF00DC
:103D60008DF803000421684600F0B8F82B2000F01D
:103D70009DF84FEA2A208DF800000AF0FF008DF828
:103D800001004FEA2B208DF802000BF0FF008DF8A8
:103D900003000421684600F0A1F82C2000F086F80A
:103DA000012204210248FDF771F9BDE8F88F0000F7
:103DB0000000024010B50446362000F077F834B118
:103DC000012C08D0022C0AD0032C10D10BE0C0200B
:103DD00000F0B0F80CE0A02000F0ACF808E0002003
:103DE00000F0A8F804E0602000F0A4F800E000BFB4
:103DF00000BF10BD0FB42DE9F84F06460F469046A0
:103E0000DDE90F9A002204212748FDF73FF99DF8CC
:103E100035003844401E83B29DF834003044401EC3
:103E200082B239463046FFF773FF00242FE0A8F135
:103E300020009DF8351000FB01400E9931F810B0BC
:103E400000251FE00BFA05F000F4004060B14FEAD6
:103E500029208DF8000009F0FF008DF801000221F3
:103E6000684600F03BF80CE04FEA2A208DF800008D
:103E70000AF0FF008DF801000221684600F02EF8DC
:103E800000BF6D1C9DF83400A842DBD8641C9DF86F
:103E90003500A042CBD8012204210348FDF7F6F8F3
:103EA000BDE8F80F5DF814FB0000024010B50446B1
:103EB000002204210848FDF7E9F8002208210648FD
:103EC000FDF7E4F82046FFF717FB01220421024822
:103ED000FDF7DCF810BD0000000002402DE9F041C4
:103EE00006460C46002204211148FDF7CFF80122B6
:103EF00008210F48FDF7CAF811E04FF6FE70844222
:103F000000D900E0204685B2002703E0F05DFFF70E
:103F1000F3FA7F1CAF42F9DB2E44641B00BF002C78
:103F2000EBD1012204210248FDF7B0F8BDE8F08191
:103F30000000024010B50446002204210848FDF7A5
:103F4000A5F8012208210648FDF7A0F82046FFF752
:103F5000D3FA012204210248FDF798F810BD0000B1
:103F6000000002400FB42DE9FE4305460E461446FC
:103F7000DDE90F78002204211A48FDF787F824E0D4
:103F80009DF834002844F0280FDB00259DF835000B
:103F9000304486B29DF835003044F02800DB17E04D
:103FA0002078202801D1641C0FE0CDE901780E981B
:103FB00000902278314628460D9BFFF71BFF9DF8A5
:103FC0003400284485B2641C00BF20780028D7D173
:103FD00000BF012204210348FDF758F8BDE8FE03A5
:103FE0005DF814FB000002407047000030B500226D
:103FF0008B071C0F0F2303FA04F20B4B8C1053F8A2
:1040000024309343084C8D1044F8253023468C10FF
:1040100053F824308C07240F00FA04F42343024C95
:104020008D1044F8253030BD083801400CB5002013
:10403000019000903348006840F4803031490860B6
:1040400000BF3048006800F4003000900198401C28
:104050000190009818B90198B0F5FA6FF1D129488C
:10406000006800F4003010B10120009001E0002051
:1040700000900098012844D122484030006840F068
:1040800080502049403108601F48006840F440409B
:104090001D4908601B48083000681A49083108604B
:1040A0000846006808600846006840F480500860D0
:1040B0001648091F0860081F006840F08070091F3B
:1040C000086000BF0F48006800F000700028F9D0B9
:1040D00040F202700E4908600A480830006820F07B
:1040E00003000849083108600846006840F00200F3
:1040F000086000BF03480830006800F00C00082882
:10410000F8D10CBD00380240007000400619400490
:10411000003C0240042808D14FF0E021096941F039
:1041200004014FF0E022116107E04FF0E02109693E
:1041300021F004014FF0E022116170477047000048
:1041400010B51548006840F4700013490860134822
:10415000006840F001001149086000200F49083153
:1041600008600E4800680E4908400C4908600020AD
:10417000091D0860081F006820F48020091F0860DE
:10418000002006490C310860FFF750FF4FF0006037
:1041900001498039086010BD88ED00E00038024018
:1041A000FFFFF6FE10B50121880700F048F801284E
:1041B00003D10121800700F033F807480088401C34
:1041C0000549088008460088022804DB0020088092
:1041D00001200249087010BDC6000020C400002064
:1041E00010B501210B4800F02AF8012803D1012164
:1041F000084800F015F808480088401C0649088067
:1042000008460088322804DB00200880012003498A
:10421000087010BD000C0040C8000020C500002040
:10422000CA430282704721B1028842F00102028033
:1042300004E002884FF6FE731A400280704730B5E2
:104240000246002000230024158A05EA010395890F
:1042500005EA010413B10CB1012000E0002030BDDB
:104260001AB183890B43838102E083898B43838165
:10427000704701858282704700220288184B98425D
:104280000ED0184B98420BD0B0F1804F08D0164B8F
:10429000984205D0154B984202D0154B984204D154
:1042A0004FF68F731A404B881A43124B984207D02F
:1042B000114B984204D04FF6FF431A400B891A4322
:1042C00002804B68C3620B880385054B984202D07D
:1042D000044B984201D18B7A038601238382704775
:1042E00000000140000401400004004000080040BC
:1042F000000C0040001000400014004010B540F2D7
:1043000025511F4800F08DF828B31D4800F042F9F0
:10431000C4B21C48008800F40040E0B91948008885
:1043200000F4804078B10A2C03D0002015490880A1
:1043300024E01448008840F400401249088001201D
:10434000114908701AE00D2C06D10E48008840F47F
:1043500080400C49088011E00A480088C0F30D0035
:104360000A490C5407480088401C06490880084642
:104370000088B0F5967F01DB0020088010BD0000AA
:1043800000100140DE000020D400002010010020B9
:1043900010B5044600BF4021044800F035F801285C
:1043A000F9D12146014800F0FAF810BD0010014093
:1043B00070B505460E46002404E0285DFFF7E8FFCF
:1043C000601C84B2042CF8DB3046FFF7E1FF70BDBF
:1043D00010B502460020108A20F470600B884C88CB
:1043E00023438C882343CC8823431843108210BD79
:1043F00021B1828942F40052828104E082894DF623
:10440000FF731A408281704702460020B1F5007F99
:1044100000D100BF13880B400BB1012000E0002049
:10442000704770B50246002400230025002040F6A6
:104430006A16B14200D100BFC1F3421501F01F035B
:10444000012606FA03F3012D02D19689334006E0D6
:10445000022D02D1168A334001E0968A33400C12B5
:10446000012606FA04F41688344013B10CB1012079
:1044700000E0002070BDF0B50346002400260025B2
:10448000002040F66A17B94200D100BF1846C1F3B8
:10449000421401F01F06012707FA06F5012C01D18D
:1044A0000C3004E0022C01D1103000E014301AB1BD
:1044B00007682F43076002E00768AF430760F0BD5D
:1044C0002DE9FF4705460E460024A14600BFA04641
:1044D000B08900B100BF2C8A24F44054F088044312
:1044E0002C82AC8941F20C608443B0883189084346
:1044F000718908430443AC81AC8A24F44074B089C8
:104500000443AC826846FEF753FA2048854202D045
:104510001F48854202D1DDF80C9001E0DDF80890DB
:10452000A88900F4004040B109EBC90000EB091074
:1045300031684900B0FBF1F707E009EBC90000EB77
:10454000091031688900B0FBF1F76420B7FBF0F087
:1045500004012009642101FB1078A88900F40040BF
:1045600040B1322000EBC800B0FBF1F000F00700D2
:10457000044308E0322000EB08106421B0FBF1F0A6
:1045800000F00F0004432C81BDE8FF8700100140BC
:104590000014014001468888C0F308007047C1F349
:1045A00008028280704700BFFEE700000FB4054B91
:1045B00010B503A9044A029800F0EEF810BC5DF8AB
:1045C00014FB0000255E0008D00000200FB4084B4B
:1045D00010B504A902AA039800F0DEF8044602A967
:1045E000002000F070FC204610BC5DF814FB0000B9
:1045F000C74E000802E008C8121F08C1002AFAD1FD
:1046000070477047002001E001C1121F002AFBD152
:10461000704700002DE9FF5F82B00021DDE9043022
:10462000020DDDF840B0034318D044F61050A2F25A
:10463000FF3242431514119801281FD0A5EB0B003F
:10464000401C5FEA000A4FF000064E4FDFF8389139
:10465000B046504615D5CAF1000413E01198012464
:104660004AA3012801D16FEA0B010298119AC0E90F
:104670000031C0E9024206B0BDE8F09FCBF1000076
:10468000DFE704460021404A491842EB0450CDE9D7
:10469000001012E0E00707D032463B46404649464C
:1046A000FBF791FE8046894632463B461046194646
:1046B000FBF789FE06460F466410002CEAD1DDE9BF
:1046C0000401DDE90023BAF1000F06DAFBF77BFEF7
:1046D00042464B46FBF777FE05E0FBF7E6FE424617
:1046E0004B46FBF7E2FE04460E460022284BFCF741
:1046F0008FF803D84FF0FF30014607E00022254B2A
:1047000020463146FBF7B8FDFCF769F8102409E0B4
:10471000002C0ADB0A220023FBF77BFF039B3032CD
:104720001A55641E50EA0102F2D1641C039AC4F1C6
:1047300011031444119A012A03D0012208430DD118
:104740000AE0084304D000204FF0110B119072E7EB
:10475000A3EB0B056D1E0DE05B4504DD4FF0000281
:1047600005F1010504E003DA4FF00002A5F10105AF
:10477000002AECD002981199C0E90231C0E9004545
:1047800079E70000000014400000F03F3000000016
:104790000000F0430000E03F2DE9FF4F95B09B463D
:1047A0008946064600250FE2252877D100242746B2
:1047B000F84A0121059400E0044316F8013F203B2C
:1047C00001FA03F01042F7D130782A2811D06FF0A7
:1047D0002F033078A0F13002092A16D8059A44F048
:1047E000020402EB820203EB42021044761C0590A5
:1047F000EFE759F8042B0592002A03DA504244F4FB
:104800000054059044F00204761C30782E2816D10E
:1048100016F8010F44F004042A280DD06FF02F027F
:104820003078A0F13003092B09D807EB870302EB9E
:104830004303C718761CF3E759F8047B761C3078DD
:104840006C280FD006DC4C2817D068280DD06A28B9
:1048500014D104E0742810D07A280FD10DE044F46C
:1048600000140AE044F4801401E044F44014727827
:10487000824202D104F58014761C761C30786628BA
:104880000BD013DC582877D009DC002875D04528D8
:10489000F6D04628F4D047281AD19DE118E06328C5
:1048A00035D0642879D0652812D195E1702873D06D
:1048B00008DC6728F1D069286FD06E280DD06F28EA
:1048C00006D1B5E073282CD0752875D0782874D01F
:1048D0005A46179990476D1C75E1C4F3025002289F
:1048E00009D003280DD0D9F8001004280DD00D6090
:1048F00009F1040967E1D9F80010EA17C1E900528B
:10490000F6E7D9F800100D80F2E70D70F0E719F81E
:10491000041B8DF8001000208DF80100EA460120EC
:1049200003E059F804AB4FF0FF3061074FF000018E
:1049300002D40DE008F101018846B9420FDA804542
:10494000F8DB1AF808100029F4D108E008F1010199
:1049500088468142FADB1AF808100029F6D105983A
:104960005B46A0EB080721463846179A00F094FAF8
:10497000284400EB080507E04DE029E10DE01AF8B6
:10498000010B5A4617999047B8F10108F7D25B46D8
:1049900021463846179A13E142E00A220092C4F3F6
:1049A00002524FF0000A022A08D059F804CB032A19
:1049B0004FEAEC710AD00DE029E02AE009F1070185
:1049C00021F00702F2E802C1914609E00FFA8CFCDF
:1049D0004FEAEC71042A03D14FFA8CFC4FEAEC71D8
:1049E000002907DA0A460021DCF1000C61EB020124
:1049F0002D2202E0220504D52B228DF8042001226D
:104A000003E0E20701D02022F7E7904659E00A21AF
:104A100002E010220DE010214FF0000A00910BE09F
:104A200010224FF0000A44F004040827009203E02B
:104A300008224FF0000A0092C4F30252022A05D065
:104A400059F804CB0021032A08D009E009F1070135
:104A500021F00702F2E802C1914605E01FFA8CFC42
:104A6000042A01D10CF0FF0C4FF00008220728D5D2
:104A7000702806D0009B83F0100353EA0A0305D088
:104A80000EE040228DF80420012208E05CEA0102D9
:104A900006D030228DF804208DF8050002229046C1
:104AA000009B83F0080353EA0A030AD15CEA01027F
:104AB00001D1620705D530228DF804204FF001089E
:104AC0007F1E582804D034A003900EA802900DE059
:104AD00036A0F9E753466046009AFBF79AFD8446F4
:104AE0000398825C0298401E029002705CEA01000A
:104AF000F0D1029806A9081A00F1200A600702D531
:104B000024F4803400E00127574502DDA7EB0A00BA
:104B100000E0002000EB0A01009005984144401A93
:104B20000590E00306D45B462146179A059800F0ED
:104B3000B3F90544002706E001A85A46C05D17995D
:104B400090476D1C7F1C4745F6DBE0030CD55B46A8
:104B50002146179A059800F09FF9054404E030209B
:104B60005A46179990476D1C0099481E00900029DD
:104B7000F5DC08E0029802995A460078491C029137
:104B8000179990476D1CBAF10001AAF1010AF1DCF6
:104B900065E1000009280100303132333435363701
:104BA0003839616263646566000000003031323379
:104BB0003435363738394142434445460000000019
:104BC00000F058F90544761C307800287FF4ECADED
:104BD00019B02846BDE8F08F620700D4062709F116
:104BE000070222F0070CFCE80223E14603F000482C
:104BF0005FEA080C02D00FF2702C0DE05FEA045C53
:104C000002D50FF2682C07E05FEAC47C02D00FF2F5
:104C1000602C01E0AFF2700C4FF0FF3823F000433E
:104C2000CDF850C065280CD006DC452809D04628B0
:104C30001DD047283DD13DE0662818D067287ED199
:104C400038E00021112F01DB112000E0781CCDE9B4
:104C5000000106A90EA8FFF7DDFCDDE90F010E9AA1
:104C600003910021009207F1010A04914DE04FF0F9
:104C700000400097CDE9011006A90EA8FFF7CAFC75
:104C8000DDE90F0203920E9B11990022DDF80CA0C2
:104C90000093049211B9791C00EB010AB7EB0A00EA
:104CA00004D4C0F1FF3007F1010A0490AAEB070019
:104CB000019044E0012F00DA01270021112F01DDCE
:104CC000112000E03846CDE9000106A90EA8FFF743
:104CD000A1FCDDE90F010E9A0391002104910092DD
:104CE000BA4621070CD40399514500DA8A46BAF135
:104CF000010F05DD009AAAF10101515C302908D0AD
:104D0000B84202DA10F1040F06DA0121CDE90110F0
:104D100015E0AAF10101E9E7002805DC0499014446
:104D20000491AAEB000102E0411C514500DD8A46D6
:104D30000499401A401C01904FF000400290200757
:104D400004D40198504501DBCDF8048000208DF893
:104D50004F0002980DF14F07B0F1004F25D02B20E6
:104D60000E9002984FF0020800280CDA40420290A0
:104D70002D200E9007E00A210298FBF734FC303119
:104D8000029007F8011DB8F10001A8F10108F2DC5A
:104D900002980028EFD1791E0E980870307800F044
:104DA000200040F0450007F8020D12A8C01B00F1DA
:104DB00007081498007800B1012000EB0A0101985F
:104DC00001EBE07105984144401A401E0590E00354
:104DD00006D45B462146179A059800F05DF8054415
:104DE0001498007818B15A46179990476D1CE00343
:104DF00024D55B462146179A059800F04DF80544E6
:104E00001CE00498002807DBDDE90301884203DD8C
:104E10000098405C179901E0179930205A46904756
:104E2000049805F10105401C04900198401E019072
:104E300004D12E205A46179990476D1CBAF10001F3
:104E4000AAF1010ADDDC05E017F8010B5A461799B3
:104E500090476D1CB8F10001A8F10108F4DC5B4635
:104E60002146179A0598ABE62D0000002B000000A4
:104E7000200000002DE9F041044600251E4617469B
:104E8000880404D405E039462020B0476D1C641E18
:104E9000F9D52846BDE8F0812DE9F041044600250A
:104EA0001E469046C80301D5302700E0202788041D
:104EB00004D505E041463846B0476D1C641EF9D55F
:104EC0002846BDE8F0810A68531C0B6010707047DB
:104ED000F0B52DED028B83B006460F4600256846DF
:104EE00000F0AEFF002447E056F8241057F82420C5
:104EF000881A002801DB014600E0414200EE101A4A
:104F0000B8EEC00ADFED200A80EE208A684600EB8A
:104F1000840090ED000AB5EEC00AF1EE10FA18D048
:104F2000684600EB8400D0ED000A88EE200AF7EE18
:104F3000000A70EE608AB0EEE80A1448D0ED090A63
:104F4000B4EEE00AF1EE10FA15DD0120A0400543B1
:104F500011E00E4890ED070AB4EEC80AF1EE10FA1F
:104F600006DC90ED080AB4EEC80AF1EE10FA02D29F
:104F70000120A0400543641C032CB5DB284603B088
:104F8000BDEC028BF0BD00000000804774BB05083B
:104F900000B59FB001210802FDF7EAFC0121880558
:104FA000FDF7C6FC0020049007900F904FF40030EE
:104FB0000E9040120D903F4805903F48069001200A
:104FC0000890002009900A904FF400600B90800038
:104FD0000C9000200F900120109000201290119052
:104FE00004A93648FBF7CEFE01213448FBF7BEFE8C
:104FF00003208DF8780001201D9000208DF87B00A3
:105000001DA92F48FBF7CAFF01208DF86100002081
:105010001B90199001208DF87000002017908DF8DA
:10502000600017A923484C38FBF766FC03230122D4
:10503000002120484C38FBF789FC01201590002006
:1050400013904FF4403014900020169013A8FBF7F3
:1050500025FC012117484C38FBF743FC012115487A
:105060004C38FBF70FFC012112484C38FBF72EFCA3
:1050700010484C38FBF7C6FC01214804FDF778FCCA
:105080000020ADF806004FF6FF7002900020ADF84A
:105090000400ADF80C0001A90A48FFF7EDF8012261
:1050A00063210848FFF7E5F801210648FFF7BBF840
:1050B0001FB000BD4C200140B4000020106402402D
:1050C000000002400044014010B504466FF00400A7
:1050D000FFF720F8E11704EB5171C1F3C701074A4C
:1050E00011701046007800EB4001C1EBC0104FF684
:1050F000FF7101EAC0000249088010BDCA0000200B
:10510000CC00002070B504464FF4077094FBF0F01B
:10511000C6B24FF4077094FBF0F100FB114085B26A
:1051200005E04FF4077000F02FF8701EC6B2002E95
:10513000F7D115B1284600F027F870BD0146114A95
:1051400012784A434FF0E0235A6100229A611A46CE
:10515000126942F001021A6100BF4FF0E0221069AB
:1051600000F001021AB100F48032002AF5D04FF0AD
:10517000E022126922F001024FF0E0231A610022BE
:105180009A617047CA0000200146114A12884A43BA
:105190004FF0E0235A6100229A611A46126942F0E8
:1051A00001021A6100BF4FF0E022106900F0010215
:1051B0001AB100F48032002AF5D04FF0E0221269D3
:1051C00022F001024FF0E0231A6100229A61704739
:1051D000CC00002038B5044664B120208DF80000D2
:1051E00028208DF8010030208DF8020038208DF83D
:1051F000030004E0A32204216846FBF71EF86A4678
:10520000042140F69E2002F00FFB01F0F9FE38BDAC
:105210003EB5044602208DF80000CA208DF801003A
:10522000E3208DF8020009208DF803006A4604216E
:10523000682002F0F9FAA3208DF8000004F0400085
:1052400048B1C0208DF80100C8208DF80200C220AE
:105250008DF8030006E0A3208DF801008DF8020010
:105260008DF8030004F4C07048B1C4208DF8040028
:10527000CC208DF80500C6208DF8060006E0A3209E
:105280008DF804008DF805008DF80600A3208DF838
:1052900007008DF808008DF809006A460A2140F6DB
:1052A000A72002F0C1FA04F0030018B120208DF805
:1052B000000002E0D8208DF800006A46012140F687
:1052C000B62002F0B1FA04F0200018B1012000F07D
:1052D000ADF802E0002000F0A9F804F4C07008B3B3
:1052E00004F4807060B1B2208DF800008B208DF83E
:1052F0000100B6208DF802009B208DF803000BE022
:10530000B0208DF8000080208DF80100B4208DF8C9
:10531000020090208DF803006A46042140F6A22086
:1053200002F082FA04F0010020B3F8208DF80000AA
:105330006A4601214FF40B6002F076FAFA21072049
:1053400000F068FB072000F02FFB012000F04FFB6E
:10535000642000F03FFC4FF4FA7000F04EFCC821CE
:10536000304800F0DFFA282000F0F8FA0A2000F0B8
:1053700008FB08E0D8208DF800006A4601214FF4B0
:105380000B6002F051FA04F0020018B1D9208DF838
:10539000000002E0D8208DF800006A46012140F2AA
:1053A0003D7002F041FA04F0040018B1012000F051
:1053B00069F802E0002000F065F804F0100018B170
:1053C0000120FFF707FF02E00020FFF703FF44F092
:1053D00008001549488101F013FE00201249887326
:1053E00004F0400018B10846807B801D887304F4E7
:1053F000C07020B10C48807B801D0B49887304F07D
:10540000140020B10848807B10300749887304F0ED
:10541000030020B10448807B001D034988730020ED
:105420003EBD000009E3CA02F00000203EB504467C
:105430006CB10EA1D1E900208968CDE9002002916C
:105440006A4609214FF4976002F0EEF93EBD0AA2C8
:10545000D2E900109268CDE9010200916A46092163
:105460004FF4976002F0E0F9F0E70000B8AAB38DBE
:10547000B4980D355D000000B8AAAAAAB088C3C5CB
:10548000C700000038B5044664B1C0208DF80000A4
:10549000C2208DF80100C4208DF80200C6208DF8CE
:1054A000030004E08B2204216846FAF7C6FE6A4630
:1054B000042140F6982002F0B7F901F0A1FD38BDB3
:1054C00038B5044614B94FF0FF3038BD6A460421A0
:1054D0004FF4587001F054FD10B14FF0FF30F4E775
:1054E0009DF8000000069DF8011040EA01409DF87B
:1054F000021040EA01209DF80310084320600020BC
:10550000E3E7000010B5C8234FF48062024940F67B
:10551000F63001F069FC10BD9CBB050870B588B081
:10552000064601A801F0ACFABDF804000021C90349
:1055300041EA5045C4034448007A00F0030056F89D
:10554000200005904048007A00F0040010B1059852
:10555000404205903C48007AC0F3C10056F8200054
:1055600006903948007A00F0200010B106984042B9
:1055700006903548007AC0F3811056F82000079055
:105580003148008900F4807010B1079840420790BC
:105590000598C117A0FB042301FB043100FB051093
:1055A000810041EA927005900698C117A0FB042380
:1055B00001FB043100FB0510810041EA9270069066
:1055C0000798C117A0FB042301FB043100FB051061
:1055D000810041EA927007900598000E8DF808004E
:1055E0000598000C8DF809000598000A8DF80A004E
:1055F0000598C0B28DF80B000698000E8DF80C00CF
:105600000698000C8DF80D000698000A8DF80E0023
:105610000698C0B28DF80F000798000E8DF81000A4
:105620000798000C8DF811000798000A8DF81200F9
:105630000798C0B28DF8130002AA0C214FF4257010
:1056400002F0F2F808B070BDF000002030B585B06F
:10565000044616A207CA02AB07C3C82C03DD4FF0ED
:10566000FF3005B030BDC82090FBF4F0401E85B27D
:10567000280A8DF80000E8B28DF801006A46022180
:1056800040F2162002F0D0F810B14FF0FF30E8E7FA
:1056900002AA0C2140F6C12002F0C6F810B14FF06A
:1056A000FF30DEE7044884810020DAE7FEF2ABC475
:1056B000AAF1DFDFBBAFDFDFF00000201FB504463B
:1056C0004848007A00F0030054F820000190454853
:1056D000007A00F0040010B1019840420190414866
:1056E000007AC0F3C10054F8200002903D48007ACF
:1056F00000F0200010B10298404202903948007A30
:10570000C0F3811054F8200003903648008900F45B
:10571000807010B10398404203903349019880FB98
:105720000101800F40EA810001902F49029880FB1F
:105730000110820042EA917002902B49039880FB8D
:105740000110820042EA917003900198000E8DF8DA
:1057500000000198000C8DF801000198000A8DF8F6
:1057600002000198C0B28DF803006A4604214FF48C
:10577000747002F059F818B14FF0FF3004B010BD4A
:105780000298000E8DF800000298000C8DF80100C0
:105790000298000A8DF802000298C0B28DF803004A
:1057A0006A4604214FF4757002F03EF810B14FF0D4
:1057B000FF30E3E70398000E8DF800000398000C1B
:1057C0008DF801000398000A8DF802000398C0B21A
:1057D0008DF803006A4604214FF4767002F024F835
:1057E000CCE70000F000002009E3CA0210B586B043
:1057F000044647A00068039046A00068029046A0B7
:105800000068019045A00068009004F0030003A91F
:10581000085C8DF8140003A8C4F3C101405C8DF846
:10582000150003A8C4F38111405C8DF8160004F044
:10583000030002A9085C8DF8100002A8C4F3C1019E
:10584000405C8DF8110002A8C4F38111405C8DF812
:10585000120005AA032140F2264001F0E5FF18B12D
:105860004FF0FF3006B010BD04AA032140F22A40D9
:1058700001F0DAFF10B14FF0FF30F3E70198059027
:105880000098049004F0040058B19DF8140040F012
:1058900001008DF814009DF8100040F001008DF813
:1058A000100004F0200058B19DF8150040F00100F0
:1058B0008DF815009DF8110040F001008DF81100E1
:1058C00004F4807058B19DF8160040F001008DF886
:1058D00016009DF8120040F001008DF8120005AA94
:1058E00003214FF4886001F09FFF10B14FF0FF30AB
:1058F000B8E704AA032140F2314001F095FF10B14E
:105900004FF0FF30AEE7064804810020AAE7000010
:105910004CCD6C000CC92C0036567600264666002D
:10592000F0000020F8B505460E464FF47A7095FB5E
:10593000F0F000FB06F4200E8DF80000200C8DF82E
:105940000100200A8DF80200E0B28DF803006A46DB
:1059500004214FF4AE7001F067FFF8BD38B504467E
:10596000052094FBF0F084B220128DF80000E0B224
:105970008DF801006A4602214FF4AD7001F054FF2A
:1059800038BD38B50446052094FBF0F084B22012EF
:105990008DF80000E0B28DF801006A4602214FF454
:1059A000AC7001F041FF38BD38B5044600200090CE
:1059B00004F0010020B19DF8000040F0300000909C
:1059C00004F0020020B19DF8000040F00C000090AF
:1059D00004F0040020B19DF8000040F003000090A6
:1059E0006A4601214FF4A47001F01EFF38BD38B59E
:1059F0000446012C01DA012402E0042C00DD042419
:105A0000601EC0B200906A46012140F24F1001F0C2
:105A10000BFF38BDF0B52DED028B83B006460F4667
:105A200006F0070010B1B7F5C86F05DD4FF0FF3085
:105A300003B0BDEC028BF0BD00EE107AB8EE400A68
:105A4000DFED5B0A80EE208A01A800F0F3FF9DF8ED
:105A50000400022806D0042817D0082828D01028CF
:105A60004CD138E09FED530A28EE000ABCEEC00A84
:105A700010EE100A84B29FED500A28EE000ABCEE28
:105A8000C00A10EE100A85B23BE09FED4C0A28EEEA
:105A9000000ABCEEC00A10EE100A84B29FED480A5C
:105AA00028EE000ABCEEC00A10EE100A85B228E00B
:105AB0009FED440A28EE000ABCEEC00A10EE100A60
:105AC00084B29FED410A28EE000ABCEEC00A10EE37
:105AD000100A85B215E09FED3D0A28EE000ABCEEE3
